{"abi":[{"type":"constructor","inputs":[{"name":"currentDate","type":"uint256","internalType":"uint256"}],"stateMutability":"nonpayable"},{"type":"receive","stateMutability":"payable"},{"type":"function","name":"actionTaken","inputs":[],"outputs":[{"name":"","type":"bool","internalType":"bool"}],"stateMutability":"view"},{"type":"function","name":"balances","inputs":[{"name":"","type":"address","internalType":"address"}],"outputs":[{"name":"","type":"uint256","internalType":"uint256"}],"stateMutability":"view"},{"type":"function","name":"dates","inputs":[{"name":"","type":"address","internalType":"address"}],"outputs":[{"name":"","type":"uint256","internalType":"uint256"}],"stateMutability":"view"},{"type":"function","name":"withdraw","inputs":[{"name":"currentDate","type":"uint256","internalType":"uint256"}],"outputs":[],"stateMutability":"payable"}],"bytecode":{"object":"0x62093a806002556003805460ff1916905560a06040526000608090815260049061002990826100fc565b5034801561003657600080fd5b5060405161068c38038061068c833981016040819052610055916101bb565b506101d4565b634e487b7160e01b600052604160045260246000fd5b600181811c9082168061008557607f821691505b6020821081036100a557634e487b7160e01b600052602260045260246000fd5b50919050565b601f8211156100f7576000816000526020600020601f850160051c810160208610156100d45750805b601f850160051c820191505b818110156100f3578281556001016100e0565b5050505b505050565b81516001600160401b038111156101155761011561005b565b610129816101238454610071565b846100ab565b602080601f83116001811461015e57600084156101465750858301515b600019600386901b1c1916600185901b1785556100f3565b600085815260208120601f198616915b8281101561018d5788860151825594840194600190910190840161016e565b50858210156101ab5787850151600019600388901b60f8161c191681555b5050505050600190811b01905550565b6000602082840312156101cd57600080fd5b5051919050565b6104a9806101e36000396000f3fe6080604052600436106100435760003560e01c806325fd5ed01461009257806327e235e3146100c15780632e1a7d4d146100fc578063f630319c1461011157600080fd5b3661008d573360009081526020819052604081208054349290610067908490610347565b90915550506002546100799042610347565b336000908152600160205260409020819055005b600080fd5b34801561009e57600080fd5b506003546100ac9060ff1681565b60405190151581526020015b60405180910390f35b3480156100cd57600080fd5b506100ee6100dc36600461036e565b60006020819052908152604090205481565b6040519081526020016100b8565b61010f61010a36600461039e565b61013e565b005b34801561011d57600080fd5b506100ee61012c36600461036e565b60016020526000908152604090205481565b6101976040518060400160405280601281526020017103230ba32b9adb6b9b39739b2b73232b92e960751b81525060016000336001600160a01b03166001600160a01b03168152602001908152602001600020546102dd565b6101c56040518060400160405280600c81526020016b031bab93932b73a2230ba32960a51b815250826102dd565b3360009081526020819052604090205461021d5760405162461bcd60e51b81526020600482015260146024820152734e6f2066756e647320746f20776974686472617760601b60448201526064015b60405180910390fd5b60025461022a9082610347565b3360009081526001602052604090205410156102585760405162461bcd60e51b8152600401610214906103b7565b6002546102659082610347565b33600090815260016020526040902054106102925760405162461bcd60e51b8152600401610214906103b7565b3360008181526020819052604080822054905181156108fc0292818181858888f193505050501580156102c9573d6000803e3d6000fd5b505033600090815260208190526040812055565b61032282826040516024016102f392919061041e565b60408051601f198184030181529190526020810180516001600160e01b03166309710a9d60e41b179052610326565b5050565b80516a636f6e736f6c652e6c6f67602083016000808483855afa5050505050565b8082018082111561036857634e487b7160e01b600052601160045260246000fd5b92915050565b60006020828403121561038057600080fd5b81356001600160a01b038116811461039757600080fd5b9392505050565b6000602082840312156103b057600080fd5b5035919050565b60208082526041908201527f4c612064617465206c696d69746520706f7572207265746972657220766f732060408201527f546f6b656e73206e276573742070617320656e636f72652061747465696e74656060820152601760f91b608082015260a00190565b604081526000835180604084015260005b8181101561044c576020818701810151606086840101520161042f565b506000606082850101526060601f19601f830116840101915050826020830152939250505056fea2646970667358221220b127fcdfecb9670b666d3b9821a63d361a9fd114c15740e15e96f7f4e53c57c164736f6c63430008170033","linkReferences":{}},"methodIdentifiers":{"actionTaken()":"25fd5ed0","balances(address)":"27e235e3","dates(address)":"f630319c","withdraw(uint256)":"2e1a7d4d"},"id":0}