{"abi":[{"type":"constructor","inputs":[],"stateMutability":"nonpayable"},{"type":"receive","stateMutability":"payable"},{"type":"function","name":"actionTaken","inputs":[],"outputs":[{"name":"","type":"bool","internalType":"bool"}],"stateMutability":"view"},{"type":"function","name":"balances","inputs":[{"name":"","type":"address","internalType":"address"}],"outputs":[{"name":"","type":"uint256","internalType":"uint256"}],"stateMutability":"view"},{"type":"function","name":"dates","inputs":[{"name":"","type":"address","internalType":"address"}],"outputs":[{"name":"","type":"uint256","internalType":"uint256"}],"stateMutability":"view"},{"type":"function","name":"withdraw","inputs":[],"outputs":[],"stateMutability":"payable"}],"bytecode":{"object":"0x608060405262093a80600255426003556004805460ff1916905534801561002557600080fd5b50610380806100356000396000f3fe6080604052600436106100435760003560e01c806325fd5ed01461009257806327e235e3146100c15780633ccfd60b146100fc578063f630319c1461010657600080fd5b3661008d5733600090815260208190526040812080543492906100679084906102f3565b909155505060025461007990426102f3565b336000908152600160205260409020819055005b600080fd5b34801561009e57600080fd5b506004546100ac9060ff1681565b60405190151581526020015b60405180910390f35b3480156100cd57600080fd5b506100ee6100dc36600461031a565b60006020819052908152604090205481565b6040519081526020016100b8565b610104610133565b005b34801561011257600080fd5b506100ee61012136600461031a565b60016020526000908152604090205481565b3360009081526001602052604090205461014c9061028a565b61015760035461028a565b336000908152602081905260409020546101af5760405162461bcd60e51b81526020600482015260146024820152734e6f2066756e647320746f20776974686472617760601b60448201526064015b60405180910390fd5b3360009081526001602052604090205460035410156102405760405162461bcd60e51b815260206004820152604160248201527f4c612064617465206c696d69746520706f7572207265746972657220766f732060448201527f546f6b656e73206e276573742070617320656e636f72652061747465696e74656064820152601760f91b608482015260a4016101a6565b3360008181526020819052604080822054905181156108fc0292818181858888f19350505050158015610277573d6000803e3d6000fd5b5033600090815260208190526040812055565b6102cf816040516024016102a091815260200190565b60408051601f198184030181529190526020810180516001600160e01b031663f5b1bba960e01b1790526102d2565b50565b80516a636f6e736f6c652e6c6f67602083016000808483855afa5050505050565b8082018082111561031457634e487b7160e01b600052601160045260246000fd5b92915050565b60006020828403121561032c57600080fd5b81356001600160a01b038116811461034357600080fd5b939250505056fea2646970667358221220b25b5582a2c5fe1a668fc5ca9adb9499f5eb37696c75e4686678f411b622248f64736f6c63430008170033","linkReferences":{}},"methodIdentifiers":{"actionTaken()":"25fd5ed0","balances(address)":"27e235e3","dates(address)":"f630319c","withdraw()":"3ccfd60b"},"id":0}